{
  "contractName": "LogitechToken",
  "abi": [
    {
      "inputs": [
        {
          "internalType": "string",
          "name": "name_",
          "type": "string"
        },
        {
          "internalType": "string",
          "name": "symbol_",
          "type": "string"
        },
        {
          "internalType": "uint256",
          "name": "totalSupply_",
          "type": "uint256"
        }
      ],
      "stateMutability": "nonpayable",
      "type": "constructor"
    },
    {
      "anonymous": false,
      "inputs": [
        {
          "indexed": true,
          "internalType": "address",
          "name": "tokenOwner",
          "type": "address"
        },
        {
          "indexed": true,
          "internalType": "address",
          "name": "spender",
          "type": "address"
        },
        {
          "indexed": false,
          "internalType": "uint256",
          "name": "tokens",
          "type": "uint256"
        }
      ],
      "name": "Approval",
      "type": "event"
    },
    {
      "anonymous": false,
      "inputs": [
        {
          "indexed": false,
          "internalType": "address",
          "name": "sender",
          "type": "address"
        },
        {
          "indexed": false,
          "internalType": "address",
          "name": "receiver",
          "type": "address"
        },
        {
          "indexed": false,
          "internalType": "uint256",
          "name": "numTokens",
          "type": "uint256"
        }
      ],
      "name": "Transfer",
      "type": "event"
    },
    {
      "inputs": [],
      "name": "name",
      "outputs": [
        {
          "internalType": "string",
          "name": "",
          "type": "string"
        }
      ],
      "stateMutability": "view",
      "type": "function",
      "constant": true
    },
    {
      "inputs": [],
      "name": "symbol",
      "outputs": [
        {
          "internalType": "string",
          "name": "",
          "type": "string"
        }
      ],
      "stateMutability": "view",
      "type": "function",
      "constant": true
    },
    {
      "inputs": [],
      "name": "totalSupply",
      "outputs": [
        {
          "internalType": "uint256",
          "name": "",
          "type": "uint256"
        }
      ],
      "stateMutability": "view",
      "type": "function",
      "constant": true
    },
    {
      "inputs": [
        {
          "internalType": "address",
          "name": "_account",
          "type": "address"
        }
      ],
      "name": "balanceOf",
      "outputs": [
        {
          "internalType": "uint256",
          "name": "",
          "type": "uint256"
        }
      ],
      "stateMutability": "view",
      "type": "function",
      "constant": true
    },
    {
      "inputs": [
        {
          "internalType": "address",
          "name": "receiver",
          "type": "address"
        },
        {
          "internalType": "uint256",
          "name": "numToken",
          "type": "uint256"
        }
      ],
      "name": "transfer",
      "outputs": [
        {
          "internalType": "bool",
          "name": "",
          "type": "bool"
        }
      ],
      "stateMutability": "nonpayable",
      "type": "function"
    },
    {
      "inputs": [
        {
          "internalType": "address",
          "name": "delegate",
          "type": "address"
        },
        {
          "internalType": "uint256",
          "name": "numTokens",
          "type": "uint256"
        }
      ],
      "name": "approve",
      "outputs": [
        {
          "internalType": "bool",
          "name": "",
          "type": "bool"
        }
      ],
      "stateMutability": "nonpayable",
      "type": "function"
    },
    {
      "inputs": [
        {
          "internalType": "address",
          "name": "owner",
          "type": "address"
        },
        {
          "internalType": "address",
          "name": "delegate",
          "type": "address"
        }
      ],
      "name": "allowance",
      "outputs": [
        {
          "internalType": "uint256",
          "name": "",
          "type": "uint256"
        }
      ],
      "stateMutability": "view",
      "type": "function",
      "constant": true
    },
    {
      "inputs": [
        {
          "internalType": "address",
          "name": "owner",
          "type": "address"
        },
        {
          "internalType": "address",
          "name": "buyer",
          "type": "address"
        },
        {
          "internalType": "uint256",
          "name": "numTokens",
          "type": "uint256"
        }
      ],
      "name": "transferFrom",
      "outputs": [
        {
          "internalType": "bool",
          "name": "",
          "type": "bool"
        }
      ],
      "stateMutability": "nonpayable",
      "type": "function"
    }
  ],
  "bytecode": "0x60806040523480156200001157600080fd5b50604051620014fa380380620014fa833981810160405281019062000037919062000291565b82600090816200004891906200056c565b5081600190816200005a91906200056c565b508060028190555080600360003373ffffffffffffffffffffffffffffffffffffffff1673ffffffffffffffffffffffffffffffffffffffff1681526020019081526020016000206000828254620000b3919062000682565b92505081905550505050620006bd565b6000604051905090565b600080fd5b600080fd5b600080fd5b600080fd5b6000601f19601f8301169050919050565b7f4e487b7100000000000000000000000000000000000000000000000000000000600052604160045260246000fd5b6200012c82620000e1565b810181811067ffffffffffffffff821117156200014e576200014d620000f2565b5b80604052505050565b600062000163620000c3565b905062000171828262000121565b919050565b600067ffffffffffffffff821115620001945762000193620000f2565b5b6200019f82620000e1565b9050602081019050919050565b60005b83811015620001cc578082015181840152602081019050620001af565b60008484015250505050565b6000620001ef620001e98462000176565b62000157565b9050828152602081018484840111156200020e576200020d620000dc565b5b6200021b848285620001ac565b509392505050565b600082601f8301126200023b576200023a620000d7565b5b81516200024d848260208601620001d8565b91505092915050565b6000819050919050565b6200026b8162000256565b81146200027757600080fd5b50565b6000815190506200028b8162000260565b92915050565b600080600060608486031215620002ad57620002ac620000cd565b5b600084015167ffffffffffffffff811115620002ce57620002cd620000d2565b5b620002dc8682870162000223565b935050602084015167ffffffffffffffff8111156200030057620002ff620000d2565b5b6200030e8682870162000223565b925050604062000321868287016200027a565b9150509250925092565b600081519050919050565b7f4e487b7100000000000000000000000000000000000000000000000000000000600052602260045260246000fd5b600060028204905060018216806200037e57607f821691505b60208210810362000394576200039362000336565b5b50919050565b60008190508160005260206000209050919050565b60006020601f8301049050919050565b600082821b905092915050565b600060088302620003fe7fffffffffffffffffffffffffffffffffffffffffffffffffffffffffffffffff82620003bf565b6200040a8683620003bf565b95508019841693508086168417925050509392505050565b6000819050919050565b60006200044d62000447620004418462000256565b62000422565b62000256565b9050919050565b6000819050919050565b62000469836200042c565b62000481620004788262000454565b848454620003cc565b825550505050565b600090565b6200049862000489565b620004a58184846200045e565b505050565b5b81811015620004cd57620004c16000826200048e565b600181019050620004ab565b5050565b601f8211156200051c57620004e6816200039a565b620004f184620003af565b8101602085101562000501578190505b620005196200051085620003af565b830182620004aa565b50505b505050565b600082821c905092915050565b6000620005416000198460080262000521565b1980831691505092915050565b60006200055c83836200052e565b9150826002028217905092915050565b62000577826200032b565b67ffffffffffffffff811115620005935762000592620000f2565b5b6200059f825462000365565b620005ac828285620004d1565b600060209050601f831160018114620005e45760008415620005cf578287015190505b620005db85826200054e565b8655506200064b565b601f198416620005f4866200039a565b60005b828110156200061e57848901518255600182019150602085019450602081019050620005f7565b868310156200063e57848901516200063a601f8916826200052e565b8355505b6001600288020188555050505b505050505050565b7f4e487b7100000000000000000000000000000000000000000000000000000000600052601160045260246000fd5b60006200068f8262000256565b91506200069c8362000256565b9250828201905080821115620006b757620006b662000653565b5b92915050565b610e2d80620006cd6000396000f3fe608060405234801561001057600080fd5b50600436106100885760003560e01c806370a082311161005b57806370a082311461012957806395d89b4114610159578063a9059cbb14610177578063dd62ed3e146101a757610088565b806306fdde031461008d578063095ea7b3146100ab57806318160ddd146100db57806323b872dd146100f9575b600080fd5b6100956101d7565b6040516100a29190610a0d565b60405180910390f35b6100c560048036038101906100c09190610ac8565b610269565b6040516100d29190610b23565b60405180910390f35b6100e361035b565b6040516100f09190610b4d565b60405180910390f35b610113600480360381019061010e9190610b68565b610365565b6040516101209190610b23565b60405180910390f35b610143600480360381019061013e9190610bbb565b6106a6565b6040516101509190610b4d565b60405180910390f35b6101616106ef565b60405161016e9190610a0d565b60405180910390f35b610191600480360381019061018c9190610ac8565b610781565b60405161019e9190610b23565b60405180910390f35b6101c160048036038101906101bc9190610be8565b6108f6565b6040516101ce9190610b4d565b60405180910390f35b6060600080546101e690610c57565b80601f016020809104026020016040519081016040528092919081815260200182805461021290610c57565b801561025f5780601f106102345761010080835404028352916020019161025f565b820191906000526020600020905b81548152906001019060200180831161024257829003601f168201915b5050505050905090565b600081600460003373ffffffffffffffffffffffffffffffffffffffff1673ffffffffffffffffffffffffffffffffffffffff16815260200190815260200160002060008573ffffffffffffffffffffffffffffffffffffffff1673ffffffffffffffffffffffffffffffffffffffff168152602001908152602001600020819055508273ffffffffffffffffffffffffffffffffffffffff163373ffffffffffffffffffffffffffffffffffffffff167f8c5be1e5ebec7d5bd14f71427d1e84f3dd0314c0f7b2291e5b200ac8c7c3b925846040516103499190610b4d565b60405180910390a36001905092915050565b6000600254905090565b6000600360008573ffffffffffffffffffffffffffffffffffffffff1673ffffffffffffffffffffffffffffffffffffffff168152602001908152602001600020548211156103b357600080fd5b600460008573ffffffffffffffffffffffffffffffffffffffff1673ffffffffffffffffffffffffffffffffffffffff16815260200190815260200160002060003373ffffffffffffffffffffffffffffffffffffffff1673ffffffffffffffffffffffffffffffffffffffff1681526020019081526020016000205482111561043c57600080fd5b81600360008673ffffffffffffffffffffffffffffffffffffffff1673ffffffffffffffffffffffffffffffffffffffff168152602001908152602001600020546104879190610cb7565b600360008673ffffffffffffffffffffffffffffffffffffffff1673ffffffffffffffffffffffffffffffffffffffff1681526020019081526020016000208190555081600460008573ffffffffffffffffffffffffffffffffffffffff1673ffffffffffffffffffffffffffffffffffffffff16815260200190815260200160002060003373ffffffffffffffffffffffffffffffffffffffff1673ffffffffffffffffffffffffffffffffffffffff168152602001908152602001600020546105529190610cb7565b600460008673ffffffffffffffffffffffffffffffffffffffff1673ffffffffffffffffffffffffffffffffffffffff16815260200190815260200160002060003373ffffffffffffffffffffffffffffffffffffffff1673ffffffffffffffffffffffffffffffffffffffff1681526020019081526020016000208190555081600360008573ffffffffffffffffffffffffffffffffffffffff1673ffffffffffffffffffffffffffffffffffffffff1681526020019081526020016000205461061d9190610ceb565b600360008573ffffffffffffffffffffffffffffffffffffffff1673ffffffffffffffffffffffffffffffffffffffff168152602001908152602001600020819055507fddf252ad1be2c89b69c2b068fc378daa952ba7f163c4a11628f55a4df523b3ef84848460405161069393929190610d2e565b60405180910390a1600190509392505050565b6000600360008373ffffffffffffffffffffffffffffffffffffffff1673ffffffffffffffffffffffffffffffffffffffff168152602001908152602001600020549050919050565b6060600180546106fe90610c57565b80601f016020809104026020016040519081016040528092919081815260200182805461072a90610c57565b80156107775780601f1061074c57610100808354040283529160200191610777565b820191906000526020600020905b81548152906001019060200180831161075a57829003601f168201915b5050505050905090565b6000600360003373ffffffffffffffffffffffffffffffffffffffff1673ffffffffffffffffffffffffffffffffffffffff16815260200190815260200160002054821115610805576040517f08c379a00000000000000000000000000000000000000000000000000000000081526004016107fc90610dd7565b60405180910390fd5b81600360003373ffffffffffffffffffffffffffffffffffffffff1673ffffffffffffffffffffffffffffffffffffffff16815260200190815260200160002060008282546108549190610cb7565b9250508190555081600360008573ffffffffffffffffffffffffffffffffffffffff1673ffffffffffffffffffffffffffffffffffffffff16815260200190815260200160002060008282546108aa9190610ceb565b925050819055507fddf252ad1be2c89b69c2b068fc378daa952ba7f163c4a11628f55a4df523b3ef3384846040516108e493929190610d2e565b60405180910390a16001905092915050565b6000600460008473ffffffffffffffffffffffffffffffffffffffff1673ffffffffffffffffffffffffffffffffffffffff16815260200190815260200160002060008373ffffffffffffffffffffffffffffffffffffffff1673ffffffffffffffffffffffffffffffffffffffff16815260200190815260200160002054905092915050565b600081519050919050565b600082825260208201905092915050565b60005b838110156109b757808201518184015260208101905061099c565b60008484015250505050565b6000601f19601f8301169050919050565b60006109df8261097d565b6109e98185610988565b93506109f9818560208601610999565b610a02816109c3565b840191505092915050565b60006020820190508181036000830152610a2781846109d4565b905092915050565b600080fd5b600073ffffffffffffffffffffffffffffffffffffffff82169050919050565b6000610a5f82610a34565b9050919050565b610a6f81610a54565b8114610a7a57600080fd5b50565b600081359050610a8c81610a66565b92915050565b6000819050919050565b610aa581610a92565b8114610ab057600080fd5b50565b600081359050610ac281610a9c565b92915050565b60008060408385031215610adf57610ade610a2f565b5b6000610aed85828601610a7d565b9250506020610afe85828601610ab3565b9150509250929050565b60008115159050919050565b610b1d81610b08565b82525050565b6000602082019050610b386000830184610b14565b92915050565b610b4781610a92565b82525050565b6000602082019050610b626000830184610b3e565b92915050565b600080600060608486031215610b8157610b80610a2f565b5b6000610b8f86828701610a7d565b9350506020610ba086828701610a7d565b9250506040610bb186828701610ab3565b9150509250925092565b600060208284031215610bd157610bd0610a2f565b5b6000610bdf84828501610a7d565b91505092915050565b60008060408385031215610bff57610bfe610a2f565b5b6000610c0d85828601610a7d565b9250506020610c1e85828601610a7d565b9150509250929050565b7f4e487b7100000000000000000000000000000000000000000000000000000000600052602260045260246000fd5b60006002820490506001821680610c6f57607f821691505b602082108103610c8257610c81610c28565b5b50919050565b7f4e487b7100000000000000000000000000000000000000000000000000000000600052601160045260246000fd5b6000610cc282610a92565b9150610ccd83610a92565b9250828203905081811115610ce557610ce4610c88565b5b92915050565b6000610cf682610a92565b9150610d0183610a92565b9250828201905080821115610d1957610d18610c88565b5b92915050565b610d2881610a54565b82525050565b6000606082019050610d436000830186610d1f565b610d506020830185610d1f565b610d5d6040830184610b3e565b949350505050565b7f43616e742073656e64206d6f7265207468616e2074686520746f74616c20737560008201527f70706c7900000000000000000000000000000000000000000000000000000000602082015250565b6000610dc1602483610988565b9150610dcc82610d65565b604082019050919050565b60006020820190508181036000830152610df081610db4565b905091905056fea26469706673582212208fd63dadc26b915ca17db84dc970883ed7b37448f63698e62fb052a3dd1ea36c64736f6c63430008130033",
  "immutableReferences": {},
  "source": "// SPDX-License-Identifier: UNLICENSED\npragma solidity ^0.8.19;\n\ncontract LogitechToken {\n\n  string private _name;\n  function name() public view returns (string memory) {\n    return _name;\n  }\n\n  string private _symbol;\n  function symbol() public view returns (string memory) {\n    return _symbol;\n  }\n\n  uint256 private _totalSupply;\n  function totalSupply() public view returns (uint256) {\n    return _totalSupply;\n  }\n\n  mapping(address => uint256) private _balances;\n  function balanceOf(address _account) public view returns (uint256) {\n    return _balances[_account];\n  }\n\n  constructor(string memory name_, string memory symbol_, uint256 totalSupply_) {\n    _name = name_;\n    _symbol = symbol_;\n    _totalSupply = totalSupply_;\n    _balances[msg.sender] += totalSupply_;\n  }\n\n  mapping(address => mapping (address => uint256)) allowed;\n\n  event Transfer(address sender, address receiver, uint256 numTokens);\n  event Approval(address indexed tokenOwner, address indexed spender, uint tokens);\n\n  function transfer(address receiver, uint256 numToken) public returns (bool) {\n    require(numToken <= _balances[msg.sender], \"Cant send more than the total supply\");\n    _balances[msg.sender] -= numToken;\n    _balances[receiver] += numToken;\n    emit Transfer(msg.sender, receiver, numToken);\n    return true;\n  }\n\n  function approve(address delegate, uint256 numTokens) public returns (bool) {\n    allowed[msg.sender][delegate] = numTokens;\n    emit Approval(msg.sender, delegate, numTokens);\n    return true;\n  }\n\n  function allowance(address owner, address delegate) public view returns (uint256) {\n    return allowed[owner][delegate];\n  }\n\n  function transferFrom(address owner, address buyer, uint numTokens) public returns (bool) {\n    require(numTokens <= _balances[owner]);\n    require(numTokens <= allowed[owner][msg.sender]);\n    _balances[owner] = _balances[owner] - numTokens;\n    allowed[owner][msg.sender] = allowed[buyer][msg.sender] - numTokens;\n    _balances[buyer] = _balances[buyer] + numTokens;\n    emit Transfer(owner, buyer, numTokens);\n    return true;\n  }\n}\n",
  "sourcePath": "C:\\Users\\yusufchilo\\Desktop\\faucet-web-app\\contracts\\LogitechToken.sol",
  "compiler": {
    "name": "solc",
    "version": "0.8.19+commit.7dd6d404.Emscripten.clang"
  },
  "schemaVersion": "3.4.16",
  "updatedAt": "2023-11-06T06:18:52.902Z",
  "networkType": "ethereum",
  "devdoc": {
    "kind": "dev",
    "methods": {},
    "version": 1
  },
  "userdoc": {
    "kind": "user",
    "methods": {},
    "version": 1
  }
}