{
  "contractName": "Logitech",
  "abi": [
    {
      "inputs": [
        {
          "internalType": "string",
          "name": "name_",
          "type": "string"
        },
        {
          "internalType": "string",
          "name": "symbol_",
          "type": "string"
        }
      ],
      "stateMutability": "nonpayable",
      "type": "constructor"
    },
    {
      "inputs": [
        {
          "internalType": "address",
          "name": "spender",
          "type": "address"
        },
        {
          "internalType": "uint256",
          "name": "allowance",
          "type": "uint256"
        },
        {
          "internalType": "uint256",
          "name": "needed",
          "type": "uint256"
        }
      ],
      "name": "ERC20InsufficientAllowance",
      "type": "error"
    },
    {
      "inputs": [
        {
          "internalType": "address",
          "name": "sender",
          "type": "address"
        },
        {
          "internalType": "uint256",
          "name": "balance",
          "type": "uint256"
        },
        {
          "internalType": "uint256",
          "name": "needed",
          "type": "uint256"
        }
      ],
      "name": "ERC20InsufficientBalance",
      "type": "error"
    },
    {
      "inputs": [
        {
          "internalType": "address",
          "name": "approver",
          "type": "address"
        }
      ],
      "name": "ERC20InvalidApprover",
      "type": "error"
    },
    {
      "inputs": [
        {
          "internalType": "address",
          "name": "receiver",
          "type": "address"
        }
      ],
      "name": "ERC20InvalidReceiver",
      "type": "error"
    },
    {
      "inputs": [
        {
          "internalType": "address",
          "name": "sender",
          "type": "address"
        }
      ],
      "name": "ERC20InvalidSender",
      "type": "error"
    },
    {
      "inputs": [
        {
          "internalType": "address",
          "name": "spender",
          "type": "address"
        }
      ],
      "name": "ERC20InvalidSpender",
      "type": "error"
    },
    {
      "anonymous": false,
      "inputs": [
        {
          "indexed": true,
          "internalType": "address",
          "name": "from",
          "type": "address"
        },
        {
          "indexed": true,
          "internalType": "address",
          "name": "to",
          "type": "address"
        },
        {
          "indexed": false,
          "internalType": "uint256",
          "name": "value",
          "type": "uint256"
        }
      ],
      "name": "Transfer",
      "type": "event"
    },
    {
      "inputs": [],
      "name": "name",
      "outputs": [
        {
          "internalType": "string",
          "name": "",
          "type": "string"
        }
      ],
      "stateMutability": "view",
      "type": "function"
    },
    {
      "inputs": [],
      "name": "symbol",
      "outputs": [
        {
          "internalType": "string",
          "name": "",
          "type": "string"
        }
      ],
      "stateMutability": "view",
      "type": "function"
    },
    {
      "inputs": [],
      "name": "totalSupply",
      "outputs": [
        {
          "internalType": "uint256",
          "name": "",
          "type": "uint256"
        }
      ],
      "stateMutability": "view",
      "type": "function"
    },
    {
      "inputs": [
        {
          "internalType": "address",
          "name": "account",
          "type": "address"
        }
      ],
      "name": "balanceOf",
      "outputs": [
        {
          "internalType": "uint256",
          "name": "",
          "type": "uint256"
        }
      ],
      "stateMutability": "view",
      "type": "function"
    }
  ],
  "bytecode": "0x60806040523480156200001157600080fd5b5060405162000e2b38038062000e2b8339818101604052810190620000379190620004d0565b8160029081620000489190620007a0565b5080600390816200005a9190620007a0565b5062000078336a084595161401484a0000006200008060201b60201c565b5050620009be565b600073ffffffffffffffffffffffffffffffffffffffff168273ffffffffffffffffffffffffffffffffffffffff1603620000f55760006040517fec442f05000000000000000000000000000000000000000000000000000000008152600401620000ec9190620008cc565b60405180910390fd5b62000109600083836200010d60201b60201c565b5050565b600073ffffffffffffffffffffffffffffffffffffffff168373ffffffffffffffffffffffffffffffffffffffff16036200016357806001600082825462000156919062000918565b9250508190555062000239565b60008060008573ffffffffffffffffffffffffffffffffffffffff1673ffffffffffffffffffffffffffffffffffffffff16815260200190815260200160002054905081811015620001f2578381836040517fe450d38c000000000000000000000000000000000000000000000000000000008152600401620001e99392919062000964565b60405180910390fd5b8181036000808673ffffffffffffffffffffffffffffffffffffffff1673ffffffffffffffffffffffffffffffffffffffff16815260200190815260200160002081905550505b600073ffffffffffffffffffffffffffffffffffffffff168273ffffffffffffffffffffffffffffffffffffffff1603620002845780600160008282540392505081905550620002d1565b806000808473ffffffffffffffffffffffffffffffffffffffff1673ffffffffffffffffffffffffffffffffffffffff168152602001908152602001600020600082825401925050819055505b8173ffffffffffffffffffffffffffffffffffffffff168373ffffffffffffffffffffffffffffffffffffffff167fddf252ad1be2c89b69c2b068fc378daa952ba7f163c4a11628f55a4df523b3ef83604051620003309190620009a1565b60405180910390a3505050565b6000604051905090565b600080fd5b600080fd5b600080fd5b600080fd5b6000601f19601f8301169050919050565b7f4e487b7100000000000000000000000000000000000000000000000000000000600052604160045260246000fd5b620003a6826200035b565b810181811067ffffffffffffffff82111715620003c857620003c76200036c565b5b80604052505050565b6000620003dd6200033d565b9050620003eb82826200039b565b919050565b600067ffffffffffffffff8211156200040e576200040d6200036c565b5b62000419826200035b565b9050602081019050919050565b60005b838110156200044657808201518184015260208101905062000429565b60008484015250505050565b6000620004696200046384620003f0565b620003d1565b90508281526020810184848401111562000488576200048762000356565b5b6200049584828562000426565b509392505050565b600082601f830112620004b557620004b462000351565b5b8151620004c784826020860162000452565b91505092915050565b60008060408385031215620004ea57620004e962000347565b5b600083015167ffffffffffffffff8111156200050b576200050a6200034c565b5b62000519858286016200049d565b925050602083015167ffffffffffffffff8111156200053d576200053c6200034c565b5b6200054b858286016200049d565b9150509250929050565b600081519050919050565b7f4e487b7100000000000000000000000000000000000000000000000000000000600052602260045260246000fd5b60006002820490506001821680620005a857607f821691505b602082108103620005be57620005bd62000560565b5b50919050565b60008190508160005260206000209050919050565b60006020601f8301049050919050565b600082821b905092915050565b600060088302620006287fffffffffffffffffffffffffffffffffffffffffffffffffffffffffffffffff82620005e9565b620006348683620005e9565b95508019841693508086168417925050509392505050565b6000819050919050565b6000819050919050565b6000620006816200067b62000675846200064c565b62000656565b6200064c565b9050919050565b6000819050919050565b6200069d8362000660565b620006b5620006ac8262000688565b848454620005f6565b825550505050565b600090565b620006cc620006bd565b620006d981848462000692565b505050565b5b818110156200070157620006f5600082620006c2565b600181019050620006df565b5050565b601f82111562000750576200071a81620005c4565b6200072584620005d9565b8101602085101562000735578190505b6200074d6200074485620005d9565b830182620006de565b50505b505050565b600082821c905092915050565b6000620007756000198460080262000755565b1980831691505092915050565b600062000790838362000762565b9150826002028217905092915050565b620007ab8262000555565b67ffffffffffffffff811115620007c757620007c66200036c565b5b620007d382546200058f565b620007e082828562000705565b600060209050601f83116001811462000818576000841562000803578287015190505b6200080f858262000782565b8655506200087f565b601f1984166200082886620005c4565b60005b8281101562000852578489015182556001820191506020850194506020810190506200082b565b868310156200087257848901516200086e601f89168262000762565b8355505b6001600288020188555050505b505050505050565b600073ffffffffffffffffffffffffffffffffffffffff82169050919050565b6000620008b48262000887565b9050919050565b620008c681620008a7565b82525050565b6000602082019050620008e36000830184620008bb565b92915050565b7f4e487b7100000000000000000000000000000000000000000000000000000000600052601160045260246000fd5b600062000925826200064c565b915062000932836200064c565b92508282019050808211156200094d576200094c620008e9565b5b92915050565b6200095e816200064c565b82525050565b60006060820190506200097b6000830186620008bb565b6200098a602083018562000953565b62000999604083018462000953565b949350505050565b6000602082019050620009b8600083018462000953565b92915050565b61045d80620009ce6000396000f3fe608060405234801561001057600080fd5b506004361061004c5760003560e01c806306fdde031461005157806318160ddd1461006f57806370a082311461008d57806395d89b41146100bd575b600080fd5b6100596100db565b60405161006691906102e1565b60405180910390f35b61007761016d565b604051610084919061031c565b60405180910390f35b6100a760048036038101906100a2919061039a565b610177565b6040516100b4919061031c565b60405180910390f35b6100c56101bf565b6040516100d291906102e1565b60405180910390f35b6060600280546100ea906103f6565b80601f0160208091040260200160405190810160405280929190818152602001828054610116906103f6565b80156101635780601f1061013857610100808354040283529160200191610163565b820191906000526020600020905b81548152906001019060200180831161014657829003601f168201915b5050505050905090565b6000600154905090565b60008060008373ffffffffffffffffffffffffffffffffffffffff1673ffffffffffffffffffffffffffffffffffffffff168152602001908152602001600020549050919050565b6060600380546101ce906103f6565b80601f01602080910402602001604051908101604052809291908181526020018280546101fa906103f6565b80156102475780601f1061021c57610100808354040283529160200191610247565b820191906000526020600020905b81548152906001019060200180831161022a57829003601f168201915b5050505050905090565b600081519050919050565b600082825260208201905092915050565b60005b8381101561028b578082015181840152602081019050610270565b60008484015250505050565b6000601f19601f8301169050919050565b60006102b382610251565b6102bd818561025c565b93506102cd81856020860161026d565b6102d681610297565b840191505092915050565b600060208201905081810360008301526102fb81846102a8565b905092915050565b6000819050919050565b61031681610303565b82525050565b6000602082019050610331600083018461030d565b92915050565b600080fd5b600073ffffffffffffffffffffffffffffffffffffffff82169050919050565b60006103678261033c565b9050919050565b6103778161035c565b811461038257600080fd5b50565b6000813590506103948161036e565b92915050565b6000602082840312156103b0576103af610337565b5b60006103be84828501610385565b91505092915050565b7f4e487b7100000000000000000000000000000000000000000000000000000000600052602260045260246000fd5b6000600282049050600182168061040e57607f821691505b602082108103610421576104206103c7565b5b5091905056fea2646970667358221220e48904c26bf8f3f2943fa46b95e77894a12df77242d54e3f1f1f89d7ac3cd3c164736f6c63430008130033",
  "immutableReferences": {},
  "source": "// SPDX-License-Identifier: MIT\r\npragma solidity ^0.8.19;\r\n\r\nimport {LogitechErrors} from \"./LogitechErrors.sol\";\r\n\r\ncontract Logitech is LogitechErrors {\r\n  mapping(address account => uint256) private _balances;\r\n\r\n  event Transfer(address indexed from, address indexed to, uint256 value);\r\n\r\n  uint256 private _totalSupply;\r\n  string private _name;\r\n  string private _symbol;\r\n\r\n  constructor(string memory name_, string memory symbol_) {\r\n    _name = name_;\r\n    _symbol = symbol_;\r\n    _mint(msg.sender, 10000000000000000000000000);\r\n  }\r\n\r\n  function name() public view virtual returns (string memory) {\r\n    return _name;\r\n  }\r\n\r\n  function symbol() public view virtual returns (string memory) {\r\n    return _symbol;\r\n  }\r\n\r\n  function totalSupply() public view virtual returns (uint256) {\r\n    return _totalSupply;\r\n  }\r\n\r\n  function balanceOf(address account) public view virtual returns (uint256) {\r\n    return _balances[account];\r\n  }\r\n\r\n  function _update(address from, address to, uint256 value) internal virtual {\r\n    if (from == address(0)) {\r\n      _totalSupply += value;\r\n    } else {\r\n      uint256 fromBalance = _balances[from];\r\n      if (fromBalance < value) {\r\n        revert ERC20InsufficientBalance(from, fromBalance, value);\r\n      }\r\n      unchecked {\r\n        _balances[from] = fromBalance - value;\r\n      }\r\n    }\r\n\r\n    if (to == address(0)) {\r\n      unchecked {\r\n        _totalSupply -= value;\r\n      }\r\n    } else {\r\n      unchecked {\r\n        _balances[to] += value;\r\n      }\r\n    }\r\n    emit Transfer(from, to, value);\r\n  }\r\n\r\n  function _mint(address account, uint256 value) internal {\r\n    if (account == address(0)) {\r\n      revert ERC20InvalidReceiver(address(0));\r\n    }\r\n    _update(address(0), account, value);\r\n  }\r\n}",
  "sourcePath": "C:\\Users\\yusufchilo\\Desktop\\faucet-web-app\\contracts\\Logitech.sol",
  "compiler": {
    "name": "solc",
    "version": "0.8.19+commit.7dd6d404.Emscripten.clang"
  },
  "schemaVersion": "3.4.16",
  "updatedAt": "2023-11-10T19:23:05.769Z",
  "devdoc": {
    "kind": "dev",
    "methods": {},
    "version": 1
  },
  "userdoc": {
    "kind": "user",
    "methods": {},
    "version": 1
  }
}