{
  "contractName": "Logitech",
  "abi": [
    {
      "inputs": [
        {
          "internalType": "string",
          "name": "name_",
          "type": "string"
        },
        {
          "internalType": "string",
          "name": "symbol_",
          "type": "string"
        }
      ],
      "stateMutability": "nonpayable",
      "type": "constructor"
    },
    {
      "inputs": [
        {
          "internalType": "address",
          "name": "spender",
          "type": "address"
        },
        {
          "internalType": "uint256",
          "name": "allowance",
          "type": "uint256"
        },
        {
          "internalType": "uint256",
          "name": "needed",
          "type": "uint256"
        }
      ],
      "name": "InsufficientAllowance",
      "type": "error"
    },
    {
      "inputs": [
        {
          "internalType": "address",
          "name": "sender",
          "type": "address"
        },
        {
          "internalType": "uint256",
          "name": "balance",
          "type": "uint256"
        },
        {
          "internalType": "uint256",
          "name": "needed",
          "type": "uint256"
        }
      ],
      "name": "InsufficientBalance",
      "type": "error"
    },
    {
      "inputs": [
        {
          "internalType": "address",
          "name": "approver",
          "type": "address"
        }
      ],
      "name": "InvalidApprover",
      "type": "error"
    },
    {
      "inputs": [
        {
          "internalType": "address",
          "name": "receiver",
          "type": "address"
        }
      ],
      "name": "InvalidReceiver",
      "type": "error"
    },
    {
      "inputs": [
        {
          "internalType": "address",
          "name": "sender",
          "type": "address"
        }
      ],
      "name": "InvalidSender",
      "type": "error"
    },
    {
      "inputs": [
        {
          "internalType": "address",
          "name": "spender",
          "type": "address"
        }
      ],
      "name": "InvalidSpender",
      "type": "error"
    },
    {
      "anonymous": false,
      "inputs": [
        {
          "indexed": true,
          "internalType": "address",
          "name": "owner",
          "type": "address"
        },
        {
          "indexed": true,
          "internalType": "address",
          "name": "spender",
          "type": "address"
        },
        {
          "indexed": false,
          "internalType": "uint256",
          "name": "amount",
          "type": "uint256"
        }
      ],
      "name": "Approval",
      "type": "event"
    },
    {
      "anonymous": false,
      "inputs": [
        {
          "indexed": true,
          "internalType": "address",
          "name": "from",
          "type": "address"
        },
        {
          "indexed": true,
          "internalType": "address",
          "name": "to",
          "type": "address"
        },
        {
          "indexed": false,
          "internalType": "uint256",
          "name": "value",
          "type": "uint256"
        }
      ],
      "name": "Transfer",
      "type": "event"
    },
    {
      "inputs": [],
      "name": "name",
      "outputs": [
        {
          "internalType": "string",
          "name": "",
          "type": "string"
        }
      ],
      "stateMutability": "view",
      "type": "function"
    },
    {
      "inputs": [],
      "name": "symbol",
      "outputs": [
        {
          "internalType": "string",
          "name": "",
          "type": "string"
        }
      ],
      "stateMutability": "view",
      "type": "function"
    },
    {
      "inputs": [],
      "name": "totalSupply",
      "outputs": [
        {
          "internalType": "uint256",
          "name": "",
          "type": "uint256"
        }
      ],
      "stateMutability": "view",
      "type": "function"
    },
    {
      "inputs": [
        {
          "internalType": "address",
          "name": "account",
          "type": "address"
        }
      ],
      "name": "balanceOf",
      "outputs": [
        {
          "internalType": "uint256",
          "name": "",
          "type": "uint256"
        }
      ],
      "stateMutability": "view",
      "type": "function"
    }
  ],
  "bytecode": "0x60806040523480156200001157600080fd5b5060405162000e6038038062000e60833981810160405281019062000037919062000505565b8160029081620000489190620007d5565b5080600390816200005a9190620007d5565b506200006e3360016200007660201b60201c565b5050620009f3565b600073ffffffffffffffffffffffffffffffffffffffff168273ffffffffffffffffffffffffffffffffffffffff1603620000eb5760006040517f9cfea583000000000000000000000000000000000000000000000000000000008152600401620000e2919062000901565b60405180910390fd5b620000ff600083836200010360201b60201c565b5050565b600073ffffffffffffffffffffffffffffffffffffffff168373ffffffffffffffffffffffffffffffffffffffff1603620001595780600160008282546200014c91906200094d565b925050819055506200026e565b806000808573ffffffffffffffffffffffffffffffffffffffff1673ffffffffffffffffffffffffffffffffffffffff1681526020019081526020016000205410156200022157826000808573ffffffffffffffffffffffffffffffffffffffff1673ffffffffffffffffffffffffffffffffffffffff16815260200190815260200160002054826040517fdb42144d000000000000000000000000000000000000000000000000000000008152600401620002189392919062000999565b60405180910390fd5b806000808573ffffffffffffffffffffffffffffffffffffffff1673ffffffffffffffffffffffffffffffffffffffff168152602001908152602001600020600082825403925050819055505b600073ffffffffffffffffffffffffffffffffffffffff168273ffffffffffffffffffffffffffffffffffffffff1603620002b9578060016000828254039250508190555062000306565b806000808473ffffffffffffffffffffffffffffffffffffffff1673ffffffffffffffffffffffffffffffffffffffff168152602001908152602001600020600082825401925050819055505b8173ffffffffffffffffffffffffffffffffffffffff168373ffffffffffffffffffffffffffffffffffffffff167fddf252ad1be2c89b69c2b068fc378daa952ba7f163c4a11628f55a4df523b3ef83604051620003659190620009d6565b60405180910390a3505050565b6000604051905090565b600080fd5b600080fd5b600080fd5b600080fd5b6000601f19601f8301169050919050565b7f4e487b7100000000000000000000000000000000000000000000000000000000600052604160045260246000fd5b620003db8262000390565b810181811067ffffffffffffffff82111715620003fd57620003fc620003a1565b5b80604052505050565b60006200041262000372565b9050620004208282620003d0565b919050565b600067ffffffffffffffff821115620004435762000442620003a1565b5b6200044e8262000390565b9050602081019050919050565b60005b838110156200047b5780820151818401526020810190506200045e565b60008484015250505050565b60006200049e620004988462000425565b62000406565b905082815260208101848484011115620004bd57620004bc6200038b565b5b620004ca8482856200045b565b509392505050565b600082601f830112620004ea57620004e962000386565b5b8151620004fc84826020860162000487565b91505092915050565b600080604083850312156200051f576200051e6200037c565b5b600083015167ffffffffffffffff81111562000540576200053f62000381565b5b6200054e85828601620004d2565b925050602083015167ffffffffffffffff81111562000572576200057162000381565b5b6200058085828601620004d2565b9150509250929050565b600081519050919050565b7f4e487b7100000000000000000000000000000000000000000000000000000000600052602260045260246000fd5b60006002820490506001821680620005dd57607f821691505b602082108103620005f357620005f262000595565b5b50919050565b60008190508160005260206000209050919050565b60006020601f8301049050919050565b600082821b905092915050565b6000600883026200065d7fffffffffffffffffffffffffffffffffffffffffffffffffffffffffffffffff826200061e565b6200066986836200061e565b95508019841693508086168417925050509392505050565b6000819050919050565b6000819050919050565b6000620006b6620006b0620006aa8462000681565b6200068b565b62000681565b9050919050565b6000819050919050565b620006d28362000695565b620006ea620006e182620006bd565b8484546200062b565b825550505050565b600090565b62000701620006f2565b6200070e818484620006c7565b505050565b5b8181101562000736576200072a600082620006f7565b60018101905062000714565b5050565b601f82111562000785576200074f81620005f9565b6200075a846200060e565b810160208510156200076a578190505b6200078262000779856200060e565b83018262000713565b50505b505050565b600082821c905092915050565b6000620007aa600019846008026200078a565b1980831691505092915050565b6000620007c5838362000797565b9150826002028217905092915050565b620007e0826200058a565b67ffffffffffffffff811115620007fc57620007fb620003a1565b5b620008088254620005c4565b620008158282856200073a565b600060209050601f8311600181146200084d576000841562000838578287015190505b620008448582620007b7565b865550620008b4565b601f1984166200085d86620005f9565b60005b82811015620008875784890151825560018201915060208501945060208101905062000860565b86831015620008a75784890151620008a3601f89168262000797565b8355505b6001600288020188555050505b505050505050565b600073ffffffffffffffffffffffffffffffffffffffff82169050919050565b6000620008e982620008bc565b9050919050565b620008fb81620008dc565b82525050565b6000602082019050620009186000830184620008f0565b92915050565b7f4e487b7100000000000000000000000000000000000000000000000000000000600052601160045260246000fd5b60006200095a8262000681565b9150620009678362000681565b92508282019050808211156200098257620009816200091e565b5b92915050565b620009938162000681565b82525050565b6000606082019050620009b06000830186620008f0565b620009bf602083018562000988565b620009ce604083018462000988565b949350505050565b6000602082019050620009ed600083018462000988565b92915050565b61045d8062000a036000396000f3fe608060405234801561001057600080fd5b506004361061004c5760003560e01c806306fdde031461005157806318160ddd1461006f57806370a082311461008d57806395d89b41146100bd575b600080fd5b6100596100db565b60405161006691906102e1565b60405180910390f35b61007761016d565b604051610084919061031c565b60405180910390f35b6100a760048036038101906100a2919061039a565b610177565b6040516100b4919061031c565b60405180910390f35b6100c56101bf565b6040516100d291906102e1565b60405180910390f35b6060600280546100ea906103f6565b80601f0160208091040260200160405190810160405280929190818152602001828054610116906103f6565b80156101635780601f1061013857610100808354040283529160200191610163565b820191906000526020600020905b81548152906001019060200180831161014657829003601f168201915b5050505050905090565b6000600154905090565b60008060008373ffffffffffffffffffffffffffffffffffffffff1673ffffffffffffffffffffffffffffffffffffffff168152602001908152602001600020549050919050565b6060600380546101ce906103f6565b80601f01602080910402602001604051908101604052809291908181526020018280546101fa906103f6565b80156102475780601f1061021c57610100808354040283529160200191610247565b820191906000526020600020905b81548152906001019060200180831161022a57829003601f168201915b5050505050905090565b600081519050919050565b600082825260208201905092915050565b60005b8381101561028b578082015181840152602081019050610270565b60008484015250505050565b6000601f19601f8301169050919050565b60006102b382610251565b6102bd818561025c565b93506102cd81856020860161026d565b6102d681610297565b840191505092915050565b600060208201905081810360008301526102fb81846102a8565b905092915050565b6000819050919050565b61031681610303565b82525050565b6000602082019050610331600083018461030d565b92915050565b600080fd5b600073ffffffffffffffffffffffffffffffffffffffff82169050919050565b60006103678261033c565b9050919050565b6103778161035c565b811461038257600080fd5b50565b6000813590506103948161036e565b92915050565b6000602082840312156103b0576103af610337565b5b60006103be84828501610385565b91505092915050565b7f4e487b7100000000000000000000000000000000000000000000000000000000600052602260045260246000fd5b6000600282049050600182168061040e57607f821691505b602082108103610421576104206103c7565b5b5091905056fea26469706673582212209060a4bb13c4b861826824b9d032b4fbd520a78d0c32f4f1f9c6a8c697c8e85164736f6c63430008130033",
  "immutableReferences": {},
  "source": "// SPDX-License-Identifier: MIT\r\npragma solidity ^0.8.19;\r\n\r\nimport {ILogitech} from \"./ILogitech.sol\";\r\n\r\ncontract Logitech is ILogitech {\r\n\tmapping(address => uint256) private balances;\r\n\r\n\tuint256 private _totalSupply;\r\n\r\n\tstring private _name;\r\n\tstring private _symbol;\r\n\r\n\tconstructor(string memory name_, string memory symbol_) {\r\n\t\t_name = name_;\r\n\t\t_symbol = symbol_;\r\n\t\tmint(msg.sender, 1);\r\n\t}\r\n\r\n\tfunction name() public view virtual returns (string memory) {\r\n\t\treturn _name;\r\n\t}\r\n\r\n\tfunction symbol() public view virtual returns (string memory) {\r\n\t\treturn _symbol;\r\n\t}\r\n\r\n\tfunction totalSupply() public view virtual returns (uint256) {\r\n\t\treturn _totalSupply;\r\n\t}\r\n\r\n\tfunction balanceOf(address account) public view virtual returns (uint256) {\r\n\t\treturn balances[account];\r\n\t}\r\n\r\n\tfunction transferFrom(address from, address to, uint256 amount) internal {\r\n\t\tif(from == address(0)) {\r\n\t\t\trevert InvalidSender(from);\r\n\t\t}\r\n\t\tif(to == address(0)) {\r\n\t\t\trevert InvalidReceiver(to);\r\n\t\t}\r\n\t\tupdate(from, to, amount);\r\n\t}\r\n\r\n\tfunction update(address from, address to, uint256 value) internal virtual {\r\n\t\tif (from == address(0)) {\r\n\t\t\t_totalSupply += value;\r\n\t\t} else {\r\n\t\t\tif (balances[from] < value) {\r\n\t\t\t\trevert InsufficientBalance(from, balances[from], value);\r\n\t\t\t}\r\n\t\t\tunchecked {\r\n\t\t\t\tbalances[from] -= value;\r\n\t\t\t}\r\n\t\t}\r\n\r\n\t\tif (to == address(0)) {\r\n\t\t\tunchecked {\r\n\t\t\t\t_totalSupply -= value;\r\n\t\t\t}\r\n\t\t} else {\r\n\t\t\tunchecked {\r\n\t\t\t\tbalances[to] += value;\r\n\t\t\t}\r\n\t\t}\r\n\t\temit Transfer(from, to, value);\r\n\t}\r\n\r\n\tfunction mint(address to, uint256 amount) internal {\r\n\t\tif (to == address(0)) {\r\n\t\t\trevert InvalidReceiver(address(0));\r\n\t\t}\r\n\t\tupdate(address(0), to, amount);\r\n\t}\r\n\r\n\tfunction burn(address from, uint256 amount) internal {\r\n\t\tif (from == address(0)) {\r\n\t\t\trevert InvalidSender(from);\r\n\t\t}\r\n\t\tupdate(from, address(0), amount);\r\n\t}\r\n}",
  "sourcePath": "C:\\Users\\yusufchilo\\Desktop\\faucet-web-app\\contracts\\Logitech.sol",
  "compiler": {
    "name": "solc",
    "version": "0.8.19+commit.7dd6d404.Emscripten.clang"
  },
  "schemaVersion": "3.4.16",
  "updatedAt": "2023-11-11T15:08:23.763Z",
  "devdoc": {
    "kind": "dev",
    "methods": {},
    "version": 1
  },
  "userdoc": {
    "kind": "user",
    "methods": {},
    "version": 1
  }
}